S0140000496E666F7461696E6D656E742E7372656324
S11300000C942A000C9447000C9447000C9447006D
S11300100C9447000C9447000C9447000C94470040
S11300200C9447000C9447000C9420070C94470050
S11300300C9447000C9447000C9447000C94470020
S11300400C9447000C9447000C9447000C94470010
S11300500C94470011241FBECFE5D8E0DEBFCDBF0E
S113006010E0A0E6B0E0E2E9FEE002C005900D92E7
S1130070AC3FB107D9F721E0ACEFB0E001C01D926D
S1130080A231B207E1F70E94F8050C9447070C94DB
S11300900000883000F561110EC04BB321E030E060
S11300A0B90102C0660F771F8A95E2F7CB018095EC
S11300B084238BBB0895613009F079C04BB321E0F0
S11300C030E0B90102C0660F771F8A95E2F7CB01D1
S11300D0842B8BBB089598EF980F983008F5611125
S11300E00EC048B321E030E0B90102C0660F771FAB
S11300F09A95E2F7CB018095842388BB08956130FB
S113010009F055C048B3885021E030E0B90102C07D
S1130110660F771F8A95E2F7CB01842B88BB08957D
S113012090EF980F983000F561110EC045B321E0AF
S113013030E0B90102C0660F771F9A95E2F7CB0150
S11301408095842385BB0895613089F545B380513A
S113015021E030E0B90102C0660F771F8A95E2F70B
S1130160CB01842B85BB089598EE980F9830F8F452
S113017061110EC042B321E030E0B90102C0660F44
S1130180771F9A95E2F7CB018095842382BB08956B
S1130190613069F442B3885121E030E0B90102C012
S11301A0660F771F8A95E2F7CB01842B82BB0895F3
S11301B0883058F429B330E0A90102C05595479519
S11301C08A95E2F7CA0181702CC098EF980F983095
S11301D058F426B330E0A90102C0559547959A9585
S11301E0E2F7CA0181701DC090EF980F983058F45F
S11301F023B330E0A90102C0559547959A95E2F7DB
S1130200CA0181700EC098EE980F983080F420B324
S113021030E0A90102C0559547959A95E2F7CA01C5
S1130220817091E0811101C090E0892F089580E0F0
S11302300895883000F561110EC04AB321E030E022
S1130240B90102C0660F771F8A95E2F7CB0180954A
S113025084238ABB0895613009F079C04AB321E050
S113026030E0B90102C0660F771F8A95E2F7CB012F
S1130270842B8ABB089598EF980F983008F5611184
S11302800EC047B321E030E0B90102C0660F771F0A
S11302909A95E2F7CB018095842387BB089561305A
S11302A009F055C047B3885021E030E0B90102C0DD
S11302B0660F771F8A95E2F7CB01842B87BB0895DD
S11302C090EF980F983000F561110EC044B321E00F
S11302D030E0B90102C0660F771F9A95E2F7CB01AF
S11302E08095842384BB0895613089F544B380519B
S11302F021E030E0B90102C0660F771F8A95E2F76A
S1130300CB01842B84BB089598EE980F9830F8F4B1
S113031061110EC041B321E030E0B90102C0660FA3
S1130320771F9A95E2F7CB018095842381BB0895CA
S1130330613069F441B3885121E030E0B90102C071
S1130340660F771F8A95E2F7CB01842B81BB089552
S1130350883000F561110EC04BB321E030E0B901E3
S113036002C0660F771F8A95E2F7CB01809584233C
S11303708BBB0895613009F079C04BB321E030E0C4
S1130380B90102C0660F771F8A95E2F7CB01842B6F
S11303908BBB089598EF980F983008F561110EC043
S11303A048B321E030E0B90102C0660F771F9A9587
S11303B0E2F7CB018095842388BB0895613009F06E
S11303C055C048B3885021E030E0B90102C0660F3F
S11303D0771F8A95E2F7CB01842B88BB089590EFB1
S11303E0980F983000F561110EC045B321E030E05C
S11303F0B90102C0660F771F9A95E2F7CB01809589
S1130400842385BB0895613089F545B3805121E08B
S113041030E0B90102C0660F771F8A95E2F7CB017D
S1130420842B85BB089598EE980F9830F8F46111E9
S11304300EC042B321E030E0B90102C0660F771F5D
S11304409A95E2F7CB018095842382BB08956130AD
S113045069F442B3885121E030E0B90102C0660F6B
S1130460771F8A95E2F7CB01842B82BB08950E9403
S11304709B058091FE00823009F419C128F4882379
S113048051F0813061F10895833009F44AC1843018
S113049009F47CC1089540E060E082EE90E00E949F
S11304A0DA0540E061E081E790E00E94DA0561E06E
S11304B08EE00E94190161E08EE00E944900809163
S11304C01101813009F083C11092FD001092FC00EB
S11304D08093FE00109211011092100108958091F2
S11304E0FD00823009F461C028F4882351F0813082
S11304F091F1D9C0833009F482C0843009F4A9C0D1
S1130500D2C00E94CD0541E060E08AE790E00E94FD
S1130510DA0540E061E087E890E00E94DA05809126
S11305201101813041F482E08093FE0010921101A8
S113053010921001089580911001813041F483E0FC
S11305408093FE001092110110921001089581E031
S11305508093FE0008950E94CD0540E060E087E9A5
S113056090E00E94DA0540E061E087E890E00E94B4
S1130570DA0580911101813041F482E08093FE001C
S11305801092110110921001089580911001813090
S113059041F483E08093FE00109211011092100147
S11305A0089581E08093FE0008950E94CD0540E007
S11305B060E086EA90E00E94DA0540E061E087E8C6
S11305C090E00E94DA0580911101813041F482E0CB
S11305D08093FE00109211011092100108958091F1
S11305E01001813041F483E08093FE0010921101E8
S11305F010921001089581E08093FE0008950E94F6
S1130600CD0540E060E083EB90E00E94DA0540E035
S113061061E087E890E00E94DA0580911101813061
S113062041F482E08093FE001092110110921001B7
S1130630089580911001813041F483E08093FE009D
S11306401092110110921001089581E08093FE0030
S113065008950E94CD0540E060E08DEB90E00E949B
S1130660DA0540E061E087E890E00E94DA058091D5
S11306701101813041F483E08093FE001092110156
S113068010921001089580911001813041F482E0AC
S11306908093FE001092110110921001089581E0E0
S11306A08093FE00089584E08093FE0008950E94E4
S11306B0CD0540E060E086EC90E00E94DA0540E081
S11306C061E089EC90E00E94DA058091FD00909150
S11306D06100891798F4909111019130F1F490938D
S11306E0FE0010921101109210019091FC009F5F86
S11306F09093FC008F5F8093FD0008959091110109
S1130700913059F494E09093FE00109211011092EC
S113071010018F5F8093FD00089582E08093FE00B6
S113072008950E94CD0540E060E08BED90E00E94CA
S1130730DA0540E061E089EC90E00E94DA058091FE
S1130740FD0090916100891770F49091110191302E
S1130750C9F49093FE0010921101109210018F5F62
S11307608093FD00089590911101913059F494E023
S11307709093FE0010921101109210018F5F8093EC
S1130780FD00089583E08093FE0008950E94CD0546
S113079040E060E08EED90E00E94DA0540E061E028
S11307A08BEE90E00E94DA058091FC00805D0E944F
S11307B0FB0480911101813039F41092FE001092F3
S11307C0110110921001089584E08093FE000895B1
S11307D00E9450048F3F49F1909160009F3F41F582
S11307E0813371F481E0809311011092100161E072
S11307F08DE00E94190161E08DE00E944900089596
S1130800823331F41092110181E080931001089534
S1130810109211011092100161E08FE00E94190101
S113082061E08FE00E94490008958FEF809360009B
S11308300895EF92FF920F931F93CF93DF93C7E630
S1130840D0E00F2EFAE6EF2EF0E0FF2EF02D8E0111
S113085061E089910E94190161E0F80180810E94A0
S11308604900CE15DF0599F7C4E6D0E00F2EF7E670
S1130870EF2EF0E0FF2EF02D8E0160E089910E94B2
S1130880190161E0F80180810E94A801CE15DF05FD
S113089099F7DF91CF911F910F91FF90EF900895F9
S11308A0BF92CF92DF92EF92FF920F931F93CF9359
S11308B0DF9380910101811148C0109200010F2E35
S11308C0FAE6EF2EF0E0FF2EF02D3CC061E08991B6
S11308D00E944900CE15DF05C9F7E0910001F0E060
S11308E0E959FF4F60E080810E94490004E610E06E
S11308F0C0E0D0E06E01F80181918F010E94D80020
S1130900811114C0C09363008091000190E09C01A8
S1130910220F331F820F931F8D509F4FFC01EC0D4C
S1130920FD1D8081809301018FEF5BC02196C33050
S1130930D10501F7809100018F5F8093000183301E
S113094008F048C0C7E6D0E0C1CF80916200813092
S1130950E9F0823009F040C0E0916300F0E0EC5926
S1130960FF4F80810E94D80081110CC08091FF004C
S11309708F5F8093FF00853088F181E0809362006F
S11309808FEF2FC01092FF008FEF2BC0E091630018
S1130990F0E0EC59FF4F80810E94D800811104C01F
S11309A01092FF008FEF1DC08091FF008F5F809336
S11309B0FF008530A8F0809101011092FF00109291
S11309C00101109200019FEF9093630092E09093D5
S11309D0620007C08FEF05C08FEF03C08FEF01C027
S11309E08FEFDF91CF911F910F91FF90EF90DF90E8
S11309F0CF90BF900895CF93C82F61E081E00E940B
S1130A00490060E082E00E944900C4FB662760F967
S1130A1084E00E944900C5FB662760F985E00E94D6
S1130A204900C6FB662760F986E00E9449006C2FE6
S1130A30661F6627661F87E00E94490061E083E025
S1130A400E944900000060E083E00E9449006C2F8E
S1130A50617084E00E944900C1FB662760F985E06B
S1130A600E944900C2FB662760F986E00E944900A3
S1130A70C3FB662760F987E00E94490061E083E0D8
S1130A800E944900000060E083E00E944900CF9189
S1130A900895CF93C82F60E081E00E94490060E090
S1130AA082E00E944900C4FB662760F984E00E944A
S1130AB04900C5FB662760F985E00E944900C6FB32
S1130AC0662760F986E00E9449006C2F661F66273E
S1130AD0661F87E00E94490061E083E00E944900AC
S1130AE0000060E083E00E9449006C2F617084E0A4
S1130AF00E944900C1FB662760F985E00E94490015
S1130B00C2FB662760F986E00E944900C3FB6627A2
S1130B1060F987E00E94490061E083E00E94490097
S1130B20000060E083E00E94490081E28A95F1F7C9
S1130B300000CF91089561E084E00E94190161E012
S1130B4085E00E94190161E086E00E94190161E0DC
S1130B5087E00E94190161E081E00E94190161E0CF
S1130B6082E00E94190161E083E00E94190183E39D
S1130B700E94490582E30E94490588E20E944905D2
S1130B808EE00E94490581E00E9449058DEE92E0C5
S1130B900197F1F700C00000089581E00E94490523
S1130BA0089590E4899F600D1124862F80680E9427
S1130BB0490508950F931F93CF93DF938C01862FDC
S1130BC0642F0E94D105F8018081882361F0E80137
S1130BD021960F5E1F4F0E94FB048991882319F010
S1130BE0C017D107C1F7DF91CF911F910F910895DD
S1130BF00E9419040E940F0648EE53E060E087E368
S1130C0092E00E94240641E050E061E088EE93E027
S1130C100E9424060E94330680E090E008950E941A
S1130C206806E2E0F1E014821382118210821282DB
S1130C308FEF90E096838583138612861086178241
S1130C40118695878487089527E0629FF001112417
S1130C50EE5FFE4F548343839183808381E08283DC
S1130C605683458308950E9404070F2EF0E1EF2E6A
S1130C70F1E0FF2EF02D0F2EF3E0DF2EF02DC2E079
S1130C80D1E0E881F981309729F08A81813011F42B
S1130C900995DA822796CE15DF0599F7F0CFE2E0C1
S1130CA0F1E020E131E041E08281882361F0858137
S1130CB09681019796838583892B29F442838381C6
S1130CC09481968385833796E217F30769F708952D
S1130CD013BE80916A00811107C083B78F7B83BFE5
S1130CE083B7877F83BF08958830A1F583B78F7B4F
S1130CF083BF83B7886083BF80916C00811107C074
S1130D0083B78F7E83BF83B78F7D83BF1AC0803143
S1130D1039F483B7806183BF83B78F7D83BF11C0EC
S1130D20803239F483B78F7E83BF83B7806283BFF9
S1130D3008C0803331F483B7806183BF83B7806296
S1130D4083BF61E08BE00E94190160E08BE00E94A8
S1130D5049000895803459F583B7806483BF83B70D
S1130D60886083BF80916D00811107C083B78F7E37
S1130D7083BF83B78F7D83BF11C0803239F483B7BB
S1130D808F7E83BF83B7806283BF08C0803331F412
S1130D9083B7806183BF83B7806283BF61E08BE0E8
S1130DA00E94190160E08BE00E9449000895883494
S1130DB051F583B7806483BF83B7877F83BF8091F6
S1130DC06E00811107C083B78F7E83BF83B78F7D89
S1130DD083BF11C0803239F483B78F7E83BF83B75A
S1130DE0806283BF08C0803331F483B7806183BFDE
S1130DF083B7806283BF61E08BE00E94190160E0E9
S1130E008BE00E944900089583B7816083BF83B754
S1130E10826083BF83B78B7F83BF789480916B009C
S1130E20813031F489B7816089BF82E882BF089537
S1130E30823029F489B7826089BF8DE78CBF089519
S1130E401F920F920FB60F9211242F933F934F933B
S1130E505F936F937F938F939F93AF93BF93EF931E
S1130E60FF93E0916F00F09170000995FF91EF916D
S1130E70BF91AF919F918F917F916F915F914F91AE
S1130E803F912F910F900FBE0F901F901895F894DB
S1050E90FFCF8E
S1130E92FF0502FF15161712131408020000004F73
S1130EA206546F205374617274005761766520335F
S1130EB22069732031390050726573732059657348
S1130EC2206F72204E6F00537461727465642069DE
S1130ED26E2041756700456E64656420696E204E1C
S1130EE26F7600416C6C20486972656400416C6CD9
S1130EF22050616964003A2900507265737320427C
S1130F023120746F20636F6E742E003A2800454EB0
S1130F12442050726573732042310053636F7265CB
S10F0F223D200031323334353637383985
S9030000FC
